:100000000C9463000C948B000C948B000C94920560
:100010000C9492050C9492050C948B000C948B001C
:100020000C948B000C948B000C948B000C948B0024
:100030000C948B000C948B000C948B000C948B0014
:100040000C941E040C948B000C94EC030C94C603CB
:100050000C948B000C948B000C948B000C948B00F4
:100060000C9468040C948B0000000008000201004E
:100070000003040700000000000000000000000072
:1000800023002600290000000000240027002A0089
:1000900000000000250028002B00040404040404D0
:1000A0000404020202020202030303030303010227
:1000B00004081020408001020408102001020408F6
:1000C00010205906BC0911241FBECFEFD8E0DEBFB7
:1000D000CDBF22E0A6E4B1E001C01D92A33DB2076E
:1000E000E1F711E0A0E0B1E0E4E0F9E102C0059041
:1000F0000D92A634B107D9F710E0C2E6D0E004C0F3
:100100002197FE010E94730AC136D107C9F70E94E8
:1001100068070C94750C0C940000CF92DF92EF925C
:10012000FF920F931F93CF93DF936C017A018B01A2
:10013000C0E0D0E0CE15DF0581F0D8016D918D01D2
:10014000D601ED91FC910190F081E02DC601099559
:10015000892B11F02196EECF7E01C701DF91CF915F
:100160001F910F91FF90EF90DF90CF900895FC01C9
:10017000538D448D252F30E0842F90E0821B930B0C
:10018000541710F0CF96089501970895FC01918DB2
:10019000828D981761F0828DDF01A80FB11D5D96E9
:1001A0008C91928D9F5F9F73928F90E008958FEF57
:1001B0009FEF0895FC01918D828D981731F0828D0B
:1001C000E80FF11D858D90E008958FEF9FEF089562
:1001D000FC01918D228D892F90E0805C9F4F821BC6
:1001E00091098F73992708958EEF91E00E94E8009E
:1001F00021E0892B09F420E0822F0895FC01848DF1
:10020000DF01A80FB11DA35ABF4F2C91848D90E040
:1002100001968F739927848FA689B7892C93A0891B
:10022000B1898C91837080648C93938D848D9813A5
:1002300006C00288F389E02D80818F7D8083089538
:10024000EF92FF920F931F93CF93DF93EC0181E026
:10025000888F9B8D8C8D981305C0E889F9898081E2
:1002600085FD26C0F62E0B8D10E00F5F1F4F0F731C
:100270001127E02E8C8DE8120CC00FB607FCFACFC8
:10028000E889F989808185FFF5CFCE010E94FE00C3
:10029000F1CF8B8DFE01E80FF11DE35AFF4FF08285
:1002A0009FB7F8940B8FEA89FB89808180620AC02E
:1002B0009FB7F894EE89FF896083E889F989808186
:1002C0008370806480839FBF81E090E0DF91CF9155
:1002D0001F910F91FF90EF900895682F8EEF91E09E
:1002E0000C942001CF93DF93EC01888D8823C9F013
:1002F000EA89FB89808185FD05C0A889B9898C912F
:1003000086FD0FC00FB607FCF5CF808185FFF2CFC9
:10031000A889B9898C9185FFEDCFCE010E94FE009E
:10032000E7CFDF91CF91089580E090E0892B29F00D
:100330000E94F40081110C94000008953FB7F894D6
:100340008091F6019091F701A091F801B091F90127
:1003500026B5A89B05C02F3F19F00196A11DB11D20
:100360003FBFBA2FA92F982F8827820F911DA11D5B
:10037000B11DBC01CD0142E0660F771F881F991F98
:100380004A95D1F708958F929F92AF92BF92CF92E4
:10039000DF92EF92FF926B017C010E949E014B0164
:1003A0005C01C114D104E104F104F1F00E949E014A
:1003B000DC01CB0188199909AA09BB09883E934041
:1003C000A105B10570F321E0C21AD108E108F108D6
:1003D00088EE880E83E0981EA11CB11CC114D104C4
:1003E000E104F10419F7DDCFFF90EF90DF90CF909B
:1003F000BF90AF909F908F90089585ED8093BC0043
:100400008091BC0084FDFCCF1092CB0108954091F7
:10041000A701262F30E0240F311D21323105DCF4F5
:100420002091CB012430C9F4FC0180E090E08617D4
:1004300058F43091A7012191DC01A957BE4FA30FB9
:10044000B11D2C930196F3CF8091A701680F6093A3
:10045000A70180E0089581E0089582E0089508955D
:100460008FEF9FEF08958FEF9FEF089580918601A2
:1004700090E09195819591090895CF93DF93CB01F9
:10048000EA01642F0E940702CE01DF91CF91089507
:10049000CF93DF931F92CDB7DEB7698361E0CE01C2
:1004A00001960E94070281E090E00F90DF91CF91CA
:1004B00008952091FC013091FD012817390771F44E
:1004C0009091FA018091FB01981741F0E091FA01B7
:1004D000F0E0EA5BFE4F808190E008958FEF9FEFA0
:1004E00008951F93CF93DF93DC015C968D919C91CF
:1004F0005D97009739F421E030E013963C932E93FA
:1005000012973BC05196ED91FC91529750962C91C9
:100510005097322F30951FB75E964C915E97742F8F
:10052000727041FD6095F8944081772311F0422B61
:1005300001C043234083EC012197F1F748E050814B
:1005400060FF02C0522B01C053235083EC0121975E
:10055000F1F76695415099F78081772319F083234D
:10056000808302C0282B20831FBF5C968D919C91B5
:100570005D970197F1F781E090E0DF91CF911F91B6
:1005800008952091FC013091FD012817390771F47D
:100590008091FB012091FA0190E0805C9F4F821BCB
:1005A000910960E470E00E944B0A089580E090E0B9
:1005B00008952091FC013091FD0128173907B9F405
:1005C0009091FA018091FB01981789F0E091FA016E
:1005D000F0E0EA5BFE4F80812091FA0130E02F5F6E
:1005E0003F4F2F7333272093FA0190E008958FEF48
:1005F0009FEF0895089580E090E00895FC018081C8
:100600009181009711F00C94D80960E070E0CB0163
:1006100008950F931F93CF93DF93EC018881998105
:10062000009729F02A813B812617370788F48B0130
:100630006F5F7F4F0E949A0B009761F099838883C8
:100640001B830A832C813D81232B11F4FC01108232
:1006500081E001C080E0DF91CF911F910F9108955B
:10066000CF93DF93EC0188819981009711F00E946C
:10067000110B198218821D821C821B821A82DF9143
:10068000CF910895EF92FF920F931F93CF93DF9333
:1006900000D0CDB7DEB78C0169831A82FC01E480FB
:1006A000F580FFEFEF1AFF0AB7010E9409038823C4
:1006B00081F0F8012081318184819581BE016F5FD5
:1006C0007F4F820F931F0E946E0CF801F582E48227
:1006D00003C0C8010E943003C8010F900F90DF9142
:1006E000CF911F910F91FF90EF900895EF92FF929D
:1006F0000F931F93CF93DF93EC017B018A01BA0123
:100700000E940903811104C0CE010E94300307C07A
:100710001D830C83B701888199810E946E0CCE01E4
:10072000DF91CF911F910F91FF90EF900895CF939C
:10073000DF93EC0140E050E064E471E00E94760356
:10074000CE01DF91CF910895CF93DF93EC01FB01B0
:100750008617970761F0608171816115710529F035
:10076000448155810E94760302C00E943003CE016D
:10077000DF91CF910895FC011182108213821282C1
:10078000158214820C94A4030E94600C1F920F9295
:100790000FB60F9211242F933F934F935F936F9354
:1007A0007F938F939F93AF93BF93EF93FF938EEFBE
:1007B00091E00E94FE00FF91EF91BF91AF919F9158
:1007C0008F917F916F915F914F913F912F910F90FA
:1007D0000FBE0F901F9018951F920F920FB60F9299
:1007E00011242F938F939F93EF93FF93E0910E0229
:1007F000F0910F028081E0911402F091150282FDC8
:1008000012C09081809117028F5F8F732091180220
:10081000821751F0E0911702F0E0E250FE4F958F01
:100820008093170201C08081FF91EF919F918F917A
:100830002F910F900FBE0F901F9018951F920F923F
:100840000FB60F9211242F933F938F939F93AF93E3
:10085000BF938091F2019091F301A091F401B091C6
:10086000F5013091F10123E0230F2D3720F401969B
:10087000A11DB11D05C026E8230F0296A11DB11DC3
:100880002093F1018093F2019093F301A093F4017E
:10089000B093F5018091F6019091F701A091F801D4
:1008A000B091F9010196A11DB11D8093F6019093BD
:1008B000F701A093F801B093F901BF91AF919F9117
:1008C0008F913F912F910F900FBE0F901F90189511
:1008D0001F920F920FB60F9211242F933F934F93B5
:1008E0005F936F937F938F939F93AF93BF93EF9398
:1008F000FF938091B900887F803609F49CC068F529
:10090000883209F45BC090F4803109F454C038F4A3
:10091000882309F4F2C0883009F44DC0F2C0883150
:1009200009F44CC0803209F45DC0EBC0803409F496
:1009300068C048F4803309F455C0883309F0E1C039
:100940008093CA01D4C0803509F44FC0883509F4BA
:100950005DC0883409F0D5C0D2C0883909F4C3C05D
:10096000A8F4883709F467C038F4883609F463C0FE
:10097000803709F460C0C5C0883809F4B4C0803934
:1009800009F45FC0803809F0BCC05BC0803B09F44B
:1009900084C038F4803A09F466C0883A09F47DC00E
:1009A000B0C0803C09F4A3C0883C09F4A0C0883BD7
:1009B00009F486C0A6C08091F00110C09091EF01AB
:1009C0008091EE01981770F5E091EF0181E08E0FB4
:1009D0008093EF01F0E0E253FE4F80818093BB00F3
:1009E00085EC82C08093CA018AC0E091EF0181E06A
:1009F0008E0F8093EF018091BB00F0E0E253FE4F39
:100A000080839091EF018091EE016AC0E091EF0147
:100A100081E08E0F8093EF018091BB00F0E0E25304
:100A2000FE4F80838091CD01811169C081E0809368
:100A3000CC0184EA5DC083E08093CB011092C901B0
:100A4000CFCF8091C901803208F04DC0E091C9013B
:100A500081E08E0F8093C9018091BB00F0E0E755E3
:100A6000FE4F8083BDCF85EC8093BC001092CB01FC
:100A70008091C901803230F4E091C901F0E0E7557E
:100A8000FE4F10826091C90170E089EA91E0E0E0D8
:100A9000F0E009951092C90134C084E08093CB0145
:100AA0001092A8011092A701E0E0F0E00995809172
:100AB000A701811105C081E08093A70110928701F1
:100AC000E091A80181E08E0F8093A801F0E0E95742
:100AD000FE4F80818093BB009091A8018091A70177
:100AE000981708F47DCF85E88093BC000AC085EC98
:100AF0008093BC001092CB0104C01092CA010E94E6
:100B0000FD01FF91EF91BF91AF919F918F917F91E7
:100B10006F915F914F913F912F910F900FBE0F906A
:100B20001F9018951F920F920FB60F9211242F93BA
:100B30003F934F935F936F937F938F939F93AF9365
:100B4000BF93EF93FF93E091FC01F091FD0130978B
:100B500009F451C0968DA685B785858591FF04C09F
:100B60009C91892329F447C09C91892309F043C0B3
:100B7000A389B4899C918589809589238C938689E2
:100B800097890197F1F7608D718DA685B785558599
:100B900038E020E0CB010197F1F7822F90E09595A6
:100BA0008795282F4C91452309F02068315091F703
:100BB000868D81FD20958091FB0190E001968F73D9
:100BC00099273091FA01381749F0A091FB01B0E064
:100BD000AA5BBE4F2C938093FB0103C0868D81607E
:100BE000868F828D938D0197F1F7A389B4899C91AB
:100BF0008589892B8C93FF91EF91BF91AF919F9144
:100C00008F917F916F915F914F913F912F910F90B5
:100C10000FBE0F901F90189590E0FC01E859FF4F10
:100C20002491FC01E255FF4F3491FC01E656FF4F41
:100C3000E491EE2309F43CC0222339F1233091F0F2
:100C400038F42130A9F0223001F584B58F7D12C02F
:100C5000273091F02830A1F02430B9F48091800041
:100C60008F7D03C0809180008F77809380000DC0BE
:100C700084B58F7784BD09C08091B0008F7703C0A1
:100C80008091B0008F7D8093B000F0E0EE0FFF1FE9
:100C9000E057FF4FA591B4919FB7F894611104C03C
:100CA0008C913095382302C0EC913E2B3C939FBF32
:100CB00008950F931F93CF93DF9310920102109228
:100CC000000288EE93E0A0E0B0E0809302029093EF
:100CD0000302A0930402B09305022AE031E03093AE
:100CE000FF012093FE0125EC30E030930B022093AE
:100CF0000A0224EC30E030930D0220930C0220EC29
:100D000030E030930F0220930E0221EC30E030935C
:100D100011022093100222EC30E030931302209352
:100D2000120226EC30E03093150220931402109248
:100D30001702109218021092190210921A021092C1
:100D40009E0210929D0280939F029093A002A09316
:100D5000A102B093A2022CE131E030939C022093D7
:100D60009B021092B3021092B2028093B40290934D
:100D7000B502A093B602B093B7028EE291E09093D1
:100D8000B1028093B0021092C7021092C602109274
:100D9000C9021092C8021092CB021092CA0210929D
:100DA000CD021092CC026091CE026E7F6D7F609377
:100DB000CE026695617081E068270E940C06EFEA1A
:100DC000F0E02491EBE9F0E08491882399F090E041
:100DD000880F991FFC01EA57FF4FA591B491FC01C0
:100DE000E057FF4F859194918FB7F894EC91E22BE7
:100DF000EC938FBFEFEAF0E0E491E093C002EBE9FF
:100E0000F0E0E491F0E0EE0FFF1FE057FF4F859117
:100E100094919093C2028093C1020EEA10E0F8010F
:100E20002491CAE9D0E0FE0184918823C9F090E0C2
:100E3000880F991FFC01EA57FF4FA591B491FC015F
:100E4000E057FF4F459154913FB7F8949C91822F02
:100E5000809598239C93FA019081892380833FBFDA
:100E60008091CE0281FD04C061E080E00E940C060A
:100E70001092BC02F80104910093BD02FE01C491DE
:100E8000EC2FF0E0EE0FFF1FE458FF4F8591949197
:100E90009093BF028093BE0280E48093A7028BE907
:100EA00092E09093A9028093A80222E42093AA02E0
:100EB0009093AC028093AB0223E42093AD02909315
:100EC000AF028093AE02DF91CF911F910F910895F1
:100ED000CF93DF93CDB7DEB72C970FB6F894DEBF74
:100EE0000FBECDBF789484B5826084BD84B5816027
:100EF00084BD85B5826085BD85B5816085BD8091E5
:100F00006E00816080936E0010928100809181005C
:100F10008260809381008091810081608093810054
:100F2000809180008160809380008091B100846016
:100F30008093B1008091B00081608093B000809177
:100F40007A00846080937A0080917A008260809336
:100F50007A0080917A00816080937A0080917A0093
:100F6000806880937A001092C100E0910E02F091A7
:100F70000F0282E08083E0910A02F0910B0210825E
:100F8000E0910C02F0910D0280E180831092160234
:100F9000E0911202F091130286E08083E09110024A
:100FA000F0911102808180618083E0911002F091C4
:100FB0001102808188608083E0911002F09111021B
:100FC000808180688083E0911002F091110280811D
:100FD0008F7D808345E050E06CE371E08EEF91E01F
:100FE0000E948D0042E050E062E471E08EEF91E0FB
:100FF0000E948D001092CB021092CA021092C90278
:101000001092C8021092C7021092C6028DE991E0B8
:101010009093CD028093CC029091BC02963108F05F
:1010200058C02DEB30E03093C7022093C6022BE965
:1010300031E03093C9022093C8022CE231E03093B2
:10104000CB022093CA0240916800983058F031E0FA
:101050009E3008F430E021E0822F01C0880F3A95DD
:10106000EAF701C084E0842B80936800983038F060
:101070009E3040F0963148F020E030E008C02DE688
:1010800030E005C02BE630E002C02CE630E03093C3
:10109000C4022093C302983030F481E001C0880F6D
:1010A0009A95EAF70EC0292F30E09E3018F42850A8
:1010B000310902C02E50310981E001C0880F2A9504
:1010C000EAF78093C5028091CC029091CD020197FE
:1010D000F1F78091CA029091CB02892B49F1E091FE
:1010E000FC01F091FD0182E0E03BF80709F1309747
:1010F00039F0A389B4899C918589809589238C9343
:101100008091CE028E7F8093CE021092FB011092CE
:10111000FA0180EB92E09093FD018093FC01E09155
:10112000C302F091C40290818091C502892B808313
:1011300080EB92E00E94C102181619060CF013C150
:1011400080EB92E00E94D902182F0E946D011335A6
:1011500009F009C118861F821A8619861C861B860B
:1011600040E050E064E471E0CE0107960E9476030F
:1011700080EB92E00E94C102892B39F461E070E0BB
:1011800080E090E00E94C301F3CF80EB92E00E94E8
:10119000D902182F0E946D01123511F1BE01695F4D
:1011A0007F4FCE0101960E94BB03612FCE010196B5
:1011B0000E944203BC01CE0107960E94A4038981CC
:1011C0009A810E94110B80EB92E00E94C102892B50
:1011D000E1F661E070E080E090E00E94C301F3CFAF
:1011E000CE0107960E949703BE01695F7F4FCE0133
:1011F00001960E94BB03612FCE0101960E9442031B
:10120000BC01CE0107960E94A40389819A810E94A5
:10121000110B80EB92E00E94C102892B39F461E04E
:1012200070E080E090E00E94C301F3CF80EB92E099
:101230000E94D902182F0E946D011734A9F6CE0121
:1012400007960E949703BE01695F7F4FCE0101960A
:101250000E94BB03612FCE0101960E944203BC0194
:10126000CE0107960E94A40389819A810E94110BE6
:1012700080EB92E00E94C102892B39F461E070E0BA
:1012800080E090E00E94C301F3CF80EB92E00E94E7
:10129000D902182F0E946D011234A9F6CE010796CB
:1012A0000E949703BE01695F7F4FCE0101960E94A5
:1012B000BB03612FCE0101960E944203BC01CE0107
:1012C00007960E94A40389819A810E94110B80EBEA
:1012D00092E00E94C102892B39F461E070E080E065
:1012E00090E00E94C301F3CF80EB92E00E94D9020C
:1012F000182F0E946D011735A9F6CE0107960E949E
:101300009703BE01695F7F4FCE0101960E94BB0328
:10131000612FCE0101960E944203BC01CE010796C7
:101320000E94A40389819A810E94110B80EB92E0B4
:101330000E94C102892B39F461E070E080E090E006
:101340000E94C301F3CF80EB92E00E94D902182FD4
:101350000E946D011332A9F68AE00E946D018F810F
:1013600098850E94110B6AE070E080E090E00E9496
:10137000C3010E949401DCCE8EE291E09093B10211
:101380008093B0028091FC019091FD01805B9240BE
:1013900071F4E091C302F091C40290818091C50282
:1013A0008095892380831092FD011092FC0108959D
:1013B0001F93FC0199278827BC01E89411911032F2
:1013C000E9F3193010F01E30C8F31B3251F01D3212
:1013D00049F4689406C00E94FF09610F711D811DC8
:1013E000911D119110531A30B0F33EF490958095F1
:1013F000709561957F4F8F4F9F4F1F910895592F83
:10140000482F372F262F660F771F881F991F660FCB
:10141000771F881F991F620F731F841F951F660F08
:10142000771F881F991F08952F923F924F925F92C6
:101430006F927F928F929F92AF92BF92CF92DF92E4
:10144000EF92FF920F931F93CF93DF93CDB7DEB749
:10145000CA1BDB0B0FB6F894DEBF0FBECDBF0994DD
:101460002A88398848885F846E847D848C849B8434
:10147000AA84B984C884DF80EE80FD800C811B8142
:10148000AA81B981CE0FD11D0FB6F894DEBF0FBE71
:10149000CDBFED01089597FB072E16F4009407D0F9
:1014A00077FD09D00E945F0A07FC05D03EF49095B5
:1014B00081959F4F0895709561957F4F0895AA1B60
:1014C000BB1B51E107C0AA1FBB1FA617B70710F02F
:1014D000A61BB70B881F991F5A95A9F78095909561
:1014E000BC01CD010895EE0FFF1F0590F491E02D92
:1014F00009940F931F93CF93DF938230910510F4DB
:1015000082E090E0E091D102F091D20220E030E060
:10151000A0E0B0E0309719F1408151810281138140
:1015200048175907C8F08417950769F4109731F0E8
:1015300012960C93129713961C9327C00093D10216
:101540001093D20222C02115310519F0421753071A
:1015500018F49A01BD01EF01DF01F801DBCF21157D
:101560003105F9F0281B390B2430310580F48A81CC
:101570009B816115710521F0FB019383828304C077
:101580009093D2028093D102FE01329644C0FE01B4
:10159000E20FF31F819391932250310939832883FD
:1015A0003AC02091CF023091D002232B41F42091F8
:1015B0000201309103013093D0022093CF02209199
:1015C0000001309101012115310541F42DB73EB7DD
:1015D0004091040150910501241B350BE091CF028D
:1015E000F091D002E217F307A0F42E1B3F0B28174F
:1015F000390778F0AC014E5F5F4F2417350748F08C
:101600004E0F5F1F5093D0024093CF02819391936E
:1016100002C0E0E0F0E0CF01DF91CF911F910F9188
:101620000895CF93DF93009709F481C0FC013297AE
:1016300013821282A091D102B091D202109781F44C
:1016400020813181820F931F2091CF023091D002EF
:101650002817390751F5F093D002E093CF0267C005
:10166000ED0120E030E0CE17DF0740F44A815B81D6
:101670009E0141155105F1F0EA01F5CFD383C283F4
:1016800040815181840F951FC817D90759F488816B
:101690009981840F951F0296918380838A819B8113
:1016A000938382832115310529F4F093D202E093CC
:1016B000D1023DC0E901FB83EA8349915991C40FEE
:1016C000D51FEC17FD0761F480819181840F951F70
:1016D0000296E90199838883828193819B838A831F
:1016E000E0E0F0E012968D919C911397009719F02D
:1016F000FD01DC01F7CF8D919C9111979D012E5F2B
:101700003F4F820F931F2091CF023091D0022817B4
:10171000390769F4309729F41092D2021092D1025D
:1017200002C013821282B093D002A093CF02DF9145
:10173000CF910895A0E0B0E0E0EAFBE00C94180A35
:10174000EC01009721F4CB010E94790AB4C0FC019E
:10175000E60FF71F9C0122503109E217F30708F446
:10176000A8C0D9010D911C91119706171707B0F069
:101770000530110508F49BC0C80104978617970728
:1017800008F495C002501109061B170B0193119321
:101790006D937C93CF010E94110B89C05B01A01A4D
:1017A000B10A4C01800E911EA091D102B091D202DB
:1017B000612C712CE12CF12C109709F446C08D910D
:1017C0009C911197A815B905B1F56C0142E0C40EC2
:1017D000D11CCA14DB0478F14C018A189B086401FF
:1017E00042E0C40ED11C1296BC9012971396AC9195
:1017F000B5E0CB16D10440F0B282A38391828082FF
:10180000D9016D937C9309C00E5F1F4F800F911F0C
:10181000F90191838083EB2DFA2FE114F10431F06B
:10182000D7011396FC93EE93129741C0F093D20226
:10183000E093D1023CC06816790608F43C017D01B2
:1018400012960D90BC91A02DB7CF8091CF029091B0
:10185000D00288169906E1F466167706C8F48091DE
:10186000000190910101009741F48DB79EB740911E
:10187000040150910501841B950BE817F907C8F482
:10188000F093D002E093CF02F901718360830FC01F
:10189000CB010E94790A7C01009759F0A801BE0192
:1018A0000E94650CCE010E94110BC70104C0CE013D
:1018B00002C080E090E0CDB7DEB7EEE00C94340AD1
:1018C00081E090E0F8940C94750CFB01DC0102C0FF
:1018D00001900D9241505040D8F70895FB01DC0172
:1018E00001900D920020E1F7089510E0C2E6D0E0EB
:1018F00004C0FE010E94730A2196C336D107C9F7BE
:04190000F894FFCF89
:101904000000D30280000000000020018D00B70019
:101914007201E800C600DA000000000048023D023F
:10192400FB022F0236023302300200000000710273
:101934008D00FB022F02C102D902590253544152B5
:0619440054000D0A000032
:107800000C94343C0C94513C0C94513C0C94513CE1
:107810000C94513C0C94513C0C94513C0C94513CB4
:107820000C94513C0C94513C0C94513C0C94513CA4
:107830000C94513C0C94513C0C94513C0C94513C94
:107840000C94513C0C94513C0C94513C0C94513C84
:107850000C94513C0C94513C0C94513C0C94513C74
:107860000C94513C0C94513C11241FBECFEFD8E036
:10787000DEBFCDBF11E0A0E0B1E0ECE9FFE702C060
:1078800005900D92A230B107D9F712E0A2E0B1E065
:1078900001C01D92AD30B107E1F70E942D3D0C945F
:1078A000CC3F0C94003C982F959595959595959582
:1078B000905D8F708A307CF0282F295A8091C0000B
:1078C00085FFFCCF9093C6008091C00085FFFCCF60
:1078D0002093C6000895282F205DF0CF982F809127
:1078E000C00085FFFCCF9093C6000895EF92FF92F1
:1078F0000F931F93EE24FF2487018091C00087FD22
:1079000017C00894E11CF11C011D111D81E4E8164B
:1079100082E4F8068FE0080780E0180770F3E09132
:107920000401F091050109958091C00087FFE9CF1E
:107930008091C6001F910F91FF90EF9008950E94D3
:10794000763C982F8091C00085FFFCCF9093C600B5
:1079500091362CF490330CF09053892F089597555D
:10796000892F08951F930E949F3C182F0E949F3CCF
:107970001295107F810F1F9108951F93182F882350
:1079800021F00E94763C1150E1F71F9108951F935A
:10799000182F0E94763C803249F0809103018F5F5E
:1079A000809303018530C1F01F9108958091C0003C
:1079B00085FFFCCF84E18093C6008091C00085FFE5
:1079C000FCCF1093C6008091C00085FFFCCF80E102
:1079D0008093C6001F910895E0910401F091050184
:1079E00009951F9108950E94763C803241F0809164
:1079F00003018F5F80930301853081F008958091AA
:107A0000C00085FFFCCF84E18093C6008091C00058
:107A100085FFFCCF80E18093C6000895E0910401CA
:107A2000F09105010995089540E951E08823A1F0FE
:107A30002D9A28EE33E0FA013197F1F721503040CA
:107A4000D1F72D9828EE33E0FA013197F1F7215064
:107A50003040D1F7815061F708953F924F925F9285
:107A60006F927F928F929F92AF92BF92CF92DF924E
:107A7000EF92FF920F931F93CF93DF93000080E16B
:107A80008093C4001092C50088E18093C10086E015
:107A90008093C2005098589A259A81E00E94143D24
:107AA00024E1F22E9EE1E92E85E9D82E0FE0C02ECA
:107AB00010E1B12EAA24A394B1E49B2EA6E58A2E50
:107AC000F2E57F2EE0E26E2E79E4572E63E5462E36
:107AD00050E5352E0E94763C8033B1F18133B9F107
:107AE000803409F46FC0813409F476C0823409F41B
:107AF00085C0853409F488C0803531F1823521F1A3
:107B0000813511F1853509F485C0863509F48DC0BC
:107B1000843609F496C0843709F403C1853709F423
:107B200072C1863709F466C0809103018F5F80932C
:107B30000301853079F6E0910401F0910501099582
:107B40000E94763C803351F60E94F33CC3CF0E94E2
:107B5000763C803249F78091C00085FFFCCFF092DF
:107B6000C6008091C00085FFFCCF9092C600809136
:107B7000C00085FFFCCF8092C6008091C00085FFC9
:107B8000FCCF7092C6008091C00085FFFCCF609250
:107B9000C6008091C00085FFFCCF5092C600809146
:107BA000C00085FFFCCF4092C6008091C00085FFD9
:107BB000FCCF3092C6008091C00085FFFCCFB09210
:107BC000C60088CF0E94763C863808F4BDCF0E945C
:107BD000763C0E94F33C7ECF0E94763C803809F4CC
:107BE0009CC0813809F40BC1823809F43CC1883942
:107BF00009F48FC080E00E94C73C6CCF84E10E94F2
:107C0000BD3C0E94F33C66CF85E00E94BD3C0E94D3
:107C1000F33C60CF0E94763C809306010E94763C44
:107C2000809307010E94F33C55CF0E94763C80333D
:107C300009F41DC183E00E94BD3C80E00E94C73C66
:107C400049CF0E94763C809309020E94763C809343
:107C5000080280910C028E7F80930C020E94763C79
:107C6000853409F415C18091080290910902892B8D
:107C700089F000E010E00E94763CF801E85FFE4FDA
:107C800080830F5F1F4F80910802909109020817AF
:107C9000190788F30E94763C803209F045CF809125
:107CA0000C0280FF01C16091060170910701660F0F
:107CB000771F7093070160930601A0910802B091AD
:107CC00009021097C9F0E8E0F1E09B01AD014E0F09
:107CD0005F1FF999FECF32BD21BD819180BDFA9A17
:107CE000F99A2F5F3F4FE417F50799F76A0F7B1F4B
:107CF00070930701609306018091C00085FFFCCF5F
:107D0000F092C6008091C00085FFFCCFB092C60003
:107D1000E1CE83E00E94C73CDDCE82E00E94C73CFA
:107D2000D9CE0E94763C809309020E94763C8093D3
:107D300008028091060190910701880F991F909386
:107D40000701809306010E94763C853409F4A6C0A1
:107D500080910C028E7F80930C020E94763C8032D0
:107D600009F0B8CE8091C00085FFFCCFF092C6002C
:107D7000609108027091090261157105B9F140E046
:107D800050E080910C02A82FA170B82FB27011C0E2
:107D9000BB2309F45CC0E0910601F0910701319624
:107DA000F0930701E09306014F5F5F4F46175707B7
:107DB000E8F4AA2369F3F999FECF209106013091E6
:107DC000070132BD21BDF89A90B58091C00085FFB2
:107DD000FCCF9093C6002F5F3F4F30930701209355
:107DE00006014F5F5F4F4617570718F38091C00099
:107DF00085FDE5CE8091C00085FFF8CFE0CE81E023
:107E00000E94C73C67CE0E94763C803209F08CCE3F
:107E10008091C00085FFFCCFF092C6008091C00029
:107E200085FFFCCFE092C6008091C00085FFFCCFAB
:107E3000D092C6008091C00085FFFCCFC092C600E2
:107E40008091C00085FFFCCFB092C60043CEE09188
:107E50000601F091070194918091C00085FFFCCF4D
:107E60009093C6009CCF80E10E94C73C33CE0E9415
:107E7000763C0E94763C182F0E94763C112309F430
:107E800083C0113009F484C08FE00E94C73C22CE29
:107E900080910C02816080930C02E5CE80910C02EF
:107EA000816080930C0259CF809107018823880F4D
:107EB000880B8A2180930B02809106019091070123
:107EC000880F991F90930701809306018091080203
:107ED00080FF09C080910802909109020196909359
:107EE000090280930802F894F999FECF1127E091D6
:107EF0000601F0910701C8E0D1E08091080290915D
:107F00000902103091F40091570001700130D9F34B
:107F100003E000935700E89500915700017001308D
:107F2000D9F301E100935700E89509901990009169
:107F3000570001700130D9F301E000935700E89534
:107F40001395103498F011270091570001700130FB
:107F5000D9F305E000935700E895009157000170B0
:107F60000130D9F301E100935700E895329602976A
:107F700009F0C7CF103011F00296E5CF112480919F
:107F8000C00085FFB9CEBCCE8EE10E94C73CA2CD19
:0C7F900085E90E94C73C9ECDF894FFCF0D
:027F9C00800063
:040000030000780081
:00000001FF