:100000000C9435000C945D000C945D000C945D0024
:100010000C945D000C945D000C945D000C945D00EC
:100020000C945D000C945D000C945D000C945D00DC
:100030000C945D000C945D000C945D000C945D00CC
:100040000C94AF020C945D000C947D020C9457024A
:100050000C945D000C945D000C945D000C945D00AC
:100060000C94F9020C945D00230411241FBECFEF01
:10007000D8E0DEBFCDBF11E0A0E0B1E0ECE8FEE0EB
:1000800002C005900D92AE3EB107D9F724E0AEEE66
:10009000B1E001C01D92A433B207E1F710E0C5E35F
:1000A000D0E004C02197FE010E942A07C433D10783
:1000B000C9F70E946F040C9444070C940000CF927F
:1000C000DF92EF92FF920F931F93CF93DF936C0118
:1000D0007A018B01C0E0D0E0CE15DF0581F0D801B8
:1000E0006D918D01D601ED91FC910190F081E02D93
:1000F000C6010995892B11F02196EECF7E01C7012B
:10010000DF91CF911F910F91FF90EF90DF90CF90F3
:100110000895FC01538D448D252F30E0842F90E00D
:10012000821B930B541710F0CF96089501970895F2
:10013000FC01918D828D981761F0828DDF01A80FEF
:10014000B11D5D968C91928D9F5F9F73928F90E011
:1001500008958FEF9FEF0895FC01918D828D981780
:1001600031F0828DE80FF11D858D90E008958FEFBD
:100170009FEF0895FC01918D228D892F90E0805C86
:100180009F4F821B91098F739927089582E893E00E
:100190000E94BA0021E0892B09F420E0822F089503
:1001A000FC01848DDF01A80FB11DA35ABF4F2C9114
:1001B000848D90E001968F739927848FA689B789E3
:1001C0002C93A089B1898C91837080648C93938DDA
:1001D000848D981306C00288F389E02D80818F7D7D
:1001E00080830895EF92FF920F931F93CF93DF9335
:1001F000EC0181E0888F9B8D8C8D981305C0E88978
:10020000F989808185FD26C0F62E0B8D10E00F5FE9
:100210001F4F0F731127E02E8C8DE8120CC00FB604
:1002200007FCFACFE889F989808185FFF5CFCE01F7
:100230000E94D000F1CF8B8DFE01E80FF11DE35A33
:10024000FF4FF0829FB7F8940B8FEA89FB8980817A
:1002500080620AC09FB7F894EE89FF896083E889BD
:10026000F98980818370806480839FBF81E090E002
:10027000DF91CF911F910F91FF90EF900895682F1C
:1002800082E893E00C94F200CF93DF93EC01888D29
:100290008823C9F0EA89FB89808185FD05C0A8898A
:1002A000B9898C9186FD0FC00FB607FCF5CF808110
:1002B00085FFF2CFA889B9898C9185FFEDCFCE015A
:1002C0000E94D000E7CFDF91CF91089580E090E0C9
:1002D000892B29F00E94C60081110C94000008951A
:1002E00085ED8093BC008091BC0084FDFCCF109212
:1002F0003302089540910F02262F30E0240F311D64
:1003000021323105DCF4209133022430C9F4FC01A0
:1003100080E090E0861758F430910F022191DC01C3
:10032000A151BE4FA30FB11D2C930196F3CF809125
:100330000F02680F60930F0280E0089581E0089536
:1003400082E0089508958FEF9FEF08958FEF9FEF5C
:1003500008958091EE0190E091958195910908951D
:10036000CF93DF93CB01EA01642F0E947A01CE0183
:10037000DF91CF910895CF93DF931F92CDB7DEB772
:10038000698361E0CE0101960E947A0181E090E0EC
:100390000F90DF91CF910895089580E090E0089547
:1003A000009769F0FC0101900020E9F73197AF0157
:1003B000481B590BBC0182E893E00C945F0080E07D
:1003C00090E008958F929F92AF92BF92CF92DF926A
:1003D000EF92FF920F931F93CF93DF93CDB7DEB7CA
:1003E000A1970FB6F894DEBF0FBECDBF6C01990F79
:1003F000EE08FF08F7FE29C08DE20E943F018C0144
:1004000022273327A9012C193D094E095F0919A29A
:10041000CE0181967C019AE0892E912CA12CB12CE1
:10042000CA01B901A50194010E94E206605DF701CD
:1004300062937F01211531054105510589F7CF01EF
:100440000E94D001800F911F1DC0A701960119A223
:100450008E010F5D1F4F8AE0C82ED12CE12CF12CAC
:10046000CA01B901A70196010E94E206605DF80188
:1004700062938F01211531054105510589F7CF019F
:100480000E94D001A1960FB6F894DEBF0FBECDBF7B
:10049000DF91CF911F910F91FF90EF90DF90CF9060
:1004A000BF90AF909F908F9008950E943F071F923A
:1004B0000F920FB60F9211242F933F934F935F9398
:1004C0006F937F938F939F93AF93BF93EF93FF931C
:1004D00082E893E00E94D000FF91EF91BF91AF912D
:1004E0009F918F917F916F915F914F913F912F914C
:1004F0000F900FBE0F901F9018951F920F920FB67E
:100500000F9211242F938F939F93EF93FF93E0917A
:100510009203F09193038081E0919803F091990305
:1005200082FD12C0908180919B038F5F8F73209119
:100530009C03821751F0E0919B03F0E0EE57FC4FD3
:10054000958F80939B0301C08081FF91EF919F91D4
:100550008F912F910F900FBE0F901F9018951F92A3
:100560000F920FB60F9211242F933F938F939F9367
:10057000AF93BF9380915E0290915F02A091600261
:10058000B091610230915D0223E0230F2D3720F4FA
:100590000196A11DB11D05C026E8230F0296A11DDD
:1005A000B11D20935D0280935E0290935F02A09341
:1005B0006002B09361028091590290915A02A09119
:1005C0005B02B0915C020196A11DB11D809359029E
:1005D00090935A02A0935B02B0935C02BF91AF91DB
:1005E0009F918F913F912F910F900FBE0F901F9071
:1005F00018951F920F920FB60F9211242F933F93CD
:100600004F935F936F937F938F939F93AF93BF931A
:10061000EF93FF938091B900887F803609F49CC0E6
:1006200068F5883209F45BC090F4803109F454C055
:1006300038F4882309F4F2C0883009F44DC0F2C0C0
:10064000883109F44CC0803209F45DC0EBC08034BD
:1006500009F468C048F4803309F455C0883309F0C0
:10066000E1C080933202D4C0803509F44FC0883590
:1006700009F45DC0883409F0D5C0D2C0883909F4C6
:10068000C3C0A8F4883709F467C038F4883609F481
:1006900063C0803709F460C0C5C0883809F4B4C0AD
:1006A000803909F45FC0803809F0BCC05BC0803B72
:1006B00009F484C038F4803A09F466C0883A09F431
:1006C0007DC0B0C0803C09F4A3C0883C09F4A0C040
:1006D000883B09F486C0A6C08091580210C0909152
:1006E000570280915602981770F5E091570281E009
:1006F0008E0F80935702F0E0EA5CFD4F808180937B
:10070000BB0085EC82C0809332028AC0E091570220
:1007100081E08E0F809357028091BB00F0E0EA5C8D
:10072000FD4F808390915702809156026AC0E091FC
:10073000570281E08E0F809357028091BB00F0E05A
:10074000EA5CFD4F808380913502811169C081E0B0
:100750008093340284EA5DC083E080933302109278
:100760003102CFCF80913102803208F04DC0E0914C
:10077000310281E08E0F809331028091BB00F0E066
:10078000EF5EFD4F8083BDCF85EC8093BC0010925F
:10079000330280913102803230F4E0913102F0E096
:1007A000EF5EFD4F10826091310270E081E192E0D6
:1007B000E0E0F0E009951092310234C084E08093CB
:1007C00033021092100210920F02E0E0F0E009955F
:1007D00080910F02811105C081E080930F02109279
:1007E000EF01E091100281E08E0F80931002F0E0A3
:1007F000E151FE4F80818093BB0090911002809167
:100800000F02981708F47DCF85E88093BC000AC0DA
:1008100085EC8093BC001092330204C01092320227
:100820000E947001FF91EF91BF91AF919F918F91C5
:100830007F916F915F914F913F912F910F900FBEDC
:100840000F901F901895E2E8F3E01382128248EEB1
:1008500053E060E070E0448355836683778384ECE3
:1008600091E09183808385EC90E09587848784EC88
:1008700090E09787868780EC90E0918B808B81EC6D
:1008800090E0938B828B82EC90E0958B848B86EC4E
:1008900090E0978B868B118E128E138E148EAFE1A3
:1008A000B4E013961C921E92129714964D935D938A
:1008B0006D937C93179786ED91E011969C938E93A0
:1008C000EBE2F4E080E48083B283A18382E483835B
:1008D000B583A48383E48683B087A7830895CF93E9
:1008E000DF93CDB7DEB72A970FB6F894DEBF0FBE01
:1008F000CDBF789484B5826084BD84B5816084BDA9
:1009000085B5826085BD85B5816085BD80916E00AD
:10091000816080936E0010928100809181008260DE
:10092000809381008091810081608093810080911B
:1009300080008160809380008091B100846080930A
:10094000B1008091B00081608093B00080917A0006
:10095000846080937A0080917A00826080937A002C
:1009600080917A00816080937A0080917A0080681B
:1009700080937A001092C100E0919203F09193036A
:1009800082E08083E0918E03F0918F031082E091EA
:100990009003F09191038FEC808310929A03E09181
:1009A0009603F091970386E08083E0919403F091A1
:1009B0009503808180618083E0919403F091950399
:1009C000808188608083E0919403F0919503808119
:1009D00080688083E0919403F091950380818F7DFE
:1009E000808384EE91E00E94D0018AEE91E00E9423
:1009F000D00168E0862E9E012F5F3F4F19017AE0FB
:100A0000972E82E893E00E94BA00181619060CF09F
:100A1000D0C182E893E00E949800182F0E943F0105
:100A20008AEE91E00E94D001133509F086C1D10110
:100A3000E82D1D92EA95E9F782E893E00E94BA005A
:100A4000892BD1F382E893E00E94980000E010E047
:100A5000823509F1909E9001919E300D11248901FB
:100A6000080F111D87FD1A9582E893E00E94BA00D5
:100A7000892BD1F382E893E00E949800E9CF82E8C5
:100A800093E00E94BA00892BD1F382E893E00E94A0
:100A900098008734D1F029813A81929E5001939E2B
:100AA000B00C1124A80EB11C87FDBA94BA82A98299
:100AB000E6CF82E893E00E94BA00892BD1F382E866
:100AC00093E00E949800823471F02B813C81929EC9
:100AD0006001939ED00C1124C80ED11C87FDDA94BE
:100AE000DC82CB82E6CF2D813E81929E7001939E67
:100AF000F00C1124E80EF11C87FDFA94FE82ED82C1
:100B000082E893E00E94BA00892BD1F382E893E057
:100B10000E949800873539F79E9C20019F9C500CBD
:100B200011243201680E711C87FD7A9478866F82D9
:100B300082E893E00E94BA00892BD1F382E893E027
:100B40000E949800833269F782E50E943F01C50147
:100B50000E94E20187E40E943F01C6010E94E20177
:100B600082E40E943F01C7010E94E20187E50E94E2
:100B70003F01C3010E94E20183E20E943F01023073
:100B80001105C0F0C801069782309105C0F10496A6
:100B90008230910508F410C106978230910508F45F
:100BA0000BC104968230910508F409C1069702979B
:100BB00030F505C120E030E00115110529F10430C0
:100BC000110511F1C8018D7F8130910579F0053053
:100BD000110561F00630110561F08830910549F08A
:100BE0000730110549F0099779F406C081E090E0DB
:100BF0000DC083E090E00AC084E090E007C020E0F0
:100C000030E002301105D9F680E090E0F101220FCA
:100C1000331F220F331F820F931F53E0880F991F3A
:100C20005A95E1F720E030E041915191DC01A20FAB
:100C3000B31FAE5DBC4F4D935C932E5F3F4F203191
:100C4000310591F7412C512C3201E0E0F0E000E059
:100C500010E07F01E00EF11E6701CC0CDD1C40E0CE
:100C600050E0C701840F951FDC01AE5DBC4F805082
:100C70009F4F2D913C91DC018D919C91D901A81B36
:100C8000B90B24E630E00E942307DA01AA0FBB1F4C
:100C9000AC0DBD1DAE59BD4F6D937D938D939C934F
:100CA0001397461657066806790614F42B013C0183
:100CB0004E5F5F4F40315105A1F6085F1F4F011590
:100CC000B1E01B0731F6B096E03221E0F20709F0FF
:100CD000BECF00E010E0E12CF12CC12CD12C58014A
:100CE000AE0CBF1CC5018C0D9D1DDC01AE59BD4F66
:100CF000BA87A9876D917D918D919C91A3019201F5
:100D00000E940407E985FA85208331834283538357
:100D1000F4E0CF0ED11C20E2C216D10419F730E165
:100D2000E30EF11CE11442E0F406B9F6005C1F4F3B
:100D3000003482E0180779F63CC01532D1F582E81C
:100D400093E00E94BA00892BD1F382E893E00E94DD
:100D5000980021E030E0811102C020E030E0C901BC
:100D60000E94E20180E090E020E030E040E050E0CE
:100D7000DC01A20FB31FBD01640F751F8B010E5D57
:100D80001C4F605A7E4FFB0160817181F8017183B5
:100D900060834E5F5F4F4031510569F7285F3F4FD9
:100DA0002115F1E03F0711F78096803221E092078C
:100DB000D9F60E94660125CE21E030E022CF22E064
:100DC00030E01FCFA1E21A2EAA1BBB1BFD010DC0F4
:100DD000AA1FBB1FEE1FFF1FA217B307E407F507EB
:100DE00020F0A21BB30BE40BF50B661F771F881FC7
:100DF000991F1A9469F760957095809590959B015D
:100E0000AC01BD01CF010895052E97FB1EF400949F
:100E10000E941B0757FD07D00E94E20607FC03D083
:100E20004EF40C941B0750954095309521953F4FFB
:100E30004F4F5F4F089590958095709561957F4FC6
:100E40008F4F9F4F08950E943007B7FF0895821B70
:100E5000930B0895EE0FFF1F0590F491E02D099478
:100E6000A29FB001B39FC001A39F700D811D1124EB
:100E7000911DB29F700D811D1124911D089581E077
:0C0E800090E0F8940C944407F894FFCF25
:100E8C000000000000000000000000000000000056
:100E9C000000000000000000000000000000000046
:100EAC000000000000000000000000000000000036
:100EBC000000000000000000000000000000000026
:100ECC000000000000000000000000000000000016
:100EDC000000000000000000000000000000000006
:100EEC0000000000000000000000000000000000F6
:100EFC0000000000000000000000000000000000E6
:100F0C0000000000000000000000000000000000D5
:100F1C0000000000000000000000000000000000C5
:100F2C0000000000000000000000000000000000B5
:100F3C0000000000000000000000000000000000A5
:100F4C0000000000F2005F0089004401BA00980024
:100F5C00AC0000000000BB01B001CD01A201A90151
:0E0F6C00A601A3015354415254000D0A000087
:107800000C94343C0C94513C0C94513C0C94513CE1
:107810000C94513C0C94513C0C94513C0C94513CB4
:107820000C94513C0C94513C0C94513C0C94513CA4
:107830000C94513C0C94513C0C94513C0C94513C94
:107840000C94513C0C94513C0C94513C0C94513C84
:107850000C94513C0C94513C0C94513C0C94513C74
:107860000C94513C0C94513C11241FBECFEFD8E036
:10787000DEBFCDBF11E0A0E0B1E0ECE9FFE702C060
:1078800005900D92A230B107D9F712E0A2E0B1E065
:1078900001C01D92AD30B107E1F70E942D3D0C945F
:1078A000CC3F0C94003C982F959595959595959582
:1078B000905D8F708A307CF0282F295A8091C0000B
:1078C00085FFFCCF9093C6008091C00085FFFCCF60
:1078D0002093C6000895282F205DF0CF982F809127
:1078E000C00085FFFCCF9093C6000895EF92FF92F1
:1078F0000F931F93EE24FF2487018091C00087FD22
:1079000017C00894E11CF11C011D111D81E4E8164B
:1079100082E4F8068FE0080780E0180770F3E09132
:107920000401F091050109958091C00087FFE9CF1E
:107930008091C6001F910F91FF90EF9008950E94D3
:10794000763C982F8091C00085FFFCCF9093C600B5
:1079500091362CF490330CF09053892F089597555D
:10796000892F08951F930E949F3C182F0E949F3CCF
:107970001295107F810F1F9108951F93182F882350
:1079800021F00E94763C1150E1F71F9108951F935A
:10799000182F0E94763C803249F0809103018F5F5E
:1079A000809303018530C1F01F9108958091C0003C
:1079B00085FFFCCF84E18093C6008091C00085FFE5
:1079C000FCCF1093C6008091C00085FFFCCF80E102
:1079D0008093C6001F910895E0910401F091050184
:1079E00009951F9108950E94763C803241F0809164
:1079F00003018F5F80930301853081F008958091AA
:107A0000C00085FFFCCF84E18093C6008091C00058
:107A100085FFFCCF80E18093C6000895E0910401CA
:107A2000F09105010995089540E951E08823A1F0FE
:107A30002D9A28EE33E0FA013197F1F721503040CA
:107A4000D1F72D9828EE33E0FA013197F1F7215064
:107A50003040D1F7815061F708953F924F925F9285
:107A60006F927F928F929F92AF92BF92CF92DF924E
:107A7000EF92FF920F931F93CF93DF93000080E16B
:107A80008093C4001092C50088E18093C10086E015
:107A90008093C2005098589A259A81E00E94143D24
:107AA00024E1F22E9EE1E92E85E9D82E0FE0C02ECA
:107AB00010E1B12EAA24A394B1E49B2EA6E58A2E50
:107AC000F2E57F2EE0E26E2E79E4572E63E5462E36
:107AD00050E5352E0E94763C8033B1F18133B9F107
:107AE000803409F46FC0813409F476C0823409F41B
:107AF00085C0853409F488C0803531F1823521F1A3
:107B0000813511F1853509F485C0863509F48DC0BC
:107B1000843609F496C0843709F403C1853709F423
:107B200072C1863709F466C0809103018F5F80932C
:107B30000301853079F6E0910401F0910501099582
:107B40000E94763C803351F60E94F33CC3CF0E94E2
:107B5000763C803249F78091C00085FFFCCFF092DF
:107B6000C6008091C00085FFFCCF9092C600809136
:107B7000C00085FFFCCF8092C6008091C00085FFC9
:107B8000FCCF7092C6008091C00085FFFCCF609250
:107B9000C6008091C00085FFFCCF5092C600809146
:107BA000C00085FFFCCF4092C6008091C00085FFD9
:107BB000FCCF3092C6008091C00085FFFCCFB09210
:107BC000C60088CF0E94763C863808F4BDCF0E945C
:107BD000763C0E94F33C7ECF0E94763C803809F4CC
:107BE0009CC0813809F40BC1823809F43CC1883942
:107BF00009F48FC080E00E94C73C6CCF84E10E94F2
:107C0000BD3C0E94F33C66CF85E00E94BD3C0E94D3
:107C1000F33C60CF0E94763C809306010E94763C44
:107C2000809307010E94F33C55CF0E94763C80333D
:107C300009F41DC183E00E94BD3C80E00E94C73C66
:107C400049CF0E94763C809309020E94763C809343
:107C5000080280910C028E7F80930C020E94763C79
:107C6000853409F415C18091080290910902892B8D
:107C700089F000E010E00E94763CF801E85FFE4FDA
:107C800080830F5F1F4F80910802909109020817AF
:107C9000190788F30E94763C803209F045CF809125
:107CA0000C0280FF01C16091060170910701660F0F
:107CB000771F7093070160930601A0910802B091AD
:107CC00009021097C9F0E8E0F1E09B01AD014E0F09
:107CD0005F1FF999FECF32BD21BD819180BDFA9A17
:107CE000F99A2F5F3F4FE417F50799F76A0F7B1F4B
:107CF00070930701609306018091C00085FFFCCF5F
:107D0000F092C6008091C00085FFFCCFB092C60003
:107D1000E1CE83E00E94C73CDDCE82E00E94C73CFA
:107D2000D9CE0E94763C809309020E94763C8093D3
:107D300008028091060190910701880F991F909386
:107D40000701809306010E94763C853409F4A6C0A1
:107D500080910C028E7F80930C020E94763C8032D0
:107D600009F0B8CE8091C00085FFFCCFF092C6002C
:107D7000609108027091090261157105B9F140E046
:107D800050E080910C02A82FA170B82FB27011C0E2
:107D9000BB2309F45CC0E0910601F0910701319624
:107DA000F0930701E09306014F5F5F4F46175707B7
:107DB000E8F4AA2369F3F999FECF209106013091E6
:107DC000070132BD21BDF89A90B58091C00085FFB2
:107DD000FCCF9093C6002F5F3F4F30930701209355
:107DE00006014F5F5F4F4617570718F38091C00099
:107DF00085FDE5CE8091C00085FFF8CFE0CE81E023
:107E00000E94C73C67CE0E94763C803209F08CCE3F
:107E10008091C00085FFFCCFF092C6008091C00029
:107E200085FFFCCFE092C6008091C00085FFFCCFAB
:107E3000D092C6008091C00085FFFCCFC092C600E2
:107E40008091C00085FFFCCFB092C60043CEE09188
:107E50000601F091070194918091C00085FFFCCF4D
:107E60009093C6009CCF80E10E94C73C33CE0E9415
:107E7000763C0E94763C182F0E94763C112309F430
:107E800083C0113009F484C08FE00E94C73C22CE29
:107E900080910C02816080930C02E5CE80910C02EF
:107EA000816080930C0259CF809107018823880F4D
:107EB000880B8A2180930B02809106019091070123
:107EC000880F991F90930701809306018091080203
:107ED00080FF09C080910802909109020196909359
:107EE000090280930802F894F999FECF1127E091D6
:107EF0000601F0910701C8E0D1E08091080290915D
:107F00000902103091F40091570001700130D9F34B
:107F100003E000935700E89500915700017001308D
:107F2000D9F301E100935700E89509901990009169
:107F3000570001700130D9F301E000935700E89534
:107F40001395103498F011270091570001700130FB
:107F5000D9F305E000935700E895009157000170B0
:107F60000130D9F301E100935700E895329602976A
:107F700009F0C7CF103011F00296E5CF112480919F
:107F8000C00085FFB9CEBCCE8EE10E94C73CA2CD19
:0C7F900085E90E94C73C9ECDF894FFCF0D
:027F9C00800063
:040000030000780081
:00000001FF