:100000000C9463000C948B000C948B000C94700483
:100010000C9470040C9470040C948B000C948B0062
:100020000C948B000C948B000C948B000C948B0024
:100030000C948B000C948B000C948B000C948B0014
:100040000C94FC020C948B000C94CA020C94A40235
:100050000C948B000C948B000C948B000C948B00F4
:100060000C9446030C948B00000000080002010071
:100070000003040700000000000000000000000072
:1000800023002600290000000000240027002A0089
:1000900000000000250028002B00040404040404D0
:1000A0000404020202020202030303030303010227
:1000B00004081020408001020408102001020408F6
:1000C00010203705790911241FBECFEFD8E0DEBF1D
:1000D000CDBF24E0A8EAB1E001C01D92A13BB20768
:1000E000E1F711E0A0E0B1E0E8E5F4E102C005903D
:1000F0000D92A83AB107D9F710E0C2E6D0E004C0EB
:100100002197FE010E94140AC136D107C9F70E9447
:1001100046060C941F0A0C940000CF92DF92EF92D7
:10012000FF920F931F93CF93DF936C017A018B01A2
:10013000C0E0D0E0CE15DF0581F0D8016D918D01D2
:10014000D601ED91FC910190F081E02DC601099559
:10015000892B11F02196EECF7E01C701DF91CF915F
:100160001F910F91FF90EF90DF90CF900895FC01C9
:10017000538D448D252F30E0842F90E0821B930B0C
:10018000541710F0CF96089501970895FC01918DB2
:10019000828D981761F0828DDF01A80FB11D5D96E9
:1001A0008C91928D9F5F9F73928F90E008958FEF57
:1001B0009FEF0895FC01918D828D981731F0828D0B
:1001C000E80FF11D858D90E008958FEF9FEF089562
:1001D000FC01918D228D892F90E0805C9F4F821BC6
:1001E00091098F739927089580EE93E00E94E800AB
:1001F00021E0892B09F420E0822F0895FC01848DF1
:10020000DF01A80FB11DA35ABF4F2C91848D90E040
:1002100001968F739927848FA689B7892C93A0891B
:10022000B1898C91837080648C93938D848D9813A5
:1002300006C00288F389E02D80818F7D8083089538
:10024000EF92FF920F931F93CF93DF93EC0181E026
:10025000888F9B8D8C8D981305C0E889F9898081E2
:1002600085FD26C0F62E0B8D10E00F5F1F4F0F731C
:100270001127E02E8C8DE8120CC00FB607FCFACFC8
:10028000E889F989808185FFF5CFCE010E94FE00C3
:10029000F1CF8B8DFE01E80FF11DE35AFF4FF08285
:1002A0009FB7F8940B8FEA89FB89808180620AC02E
:1002B0009FB7F894EE89FF896083E889F989808186
:1002C0008370806480839FBF81E090E0DF91CF9155
:1002D0001F910F91FF90EF900895CF93DF93EC0162
:1002E000888D8823C9F0EA89FB89808185FD05C056
:1002F000A889B9898C9186FD0FC00FB607FCF5CF90
:10030000808185FFF2CFA889B9898C9185FFEDCFD7
:10031000CE010E94FE00E7CFDF91CF91089580E0EB
:1003200090E0892B29F00E94F40081110C940000C8
:10033000089585ED8093BC008091BC0084FDFCCFC6
:1003400010922D02089540910902262F30E0240FCB
:10035000311D21323105DCF420912D022430C9F405
:10036000FC0180E090E0861758F430910902219159
:10037000DC01A751BE4FA30FB11D2C930196F3CF03
:1003800080910902680F6093090280E0089581E07E
:10039000089582E0089508958FEF9FEF08958FEFFD
:1003A0009FEF08958091E80190E0919581959109E2
:1003B0000895CF93DF93CB01EA01642F0E94A3013C
:1003C000CE01DF91CF910895CF93DF931F92CDB7E8
:1003D000DEB7698361E0CE0101960E94A30181E04E
:1003E00090E00F90DF91CF91089520915E023091BF
:1003F0005F022817390771F490915C0280915D02C9
:10040000981741F0E0915C02F0E0E855FE4F8081E2
:1004100090E008958FEF9FEF08951F93CF93DF93A0
:10042000DC015C968D919C915D97009739F421E0F9
:1004300030E013963C932E9312973BC05196ED916A
:10044000FC91529750962C915097322F30951FB7B0
:100450005E964C915E97742F727041FD6095F89492
:100460004081772311F0422B01C043234083EC01EC
:100470002197F1F748E0508160FF02C0522B01C084
:1004800053235083EC012197F1F76695415099F77A
:100490008081772319F08323808302C0282B208357
:1004A0001FBF5C968D919C915D970197F1F781E05C
:1004B00090E0DF91CF911F91089520915E023091DD
:1004C0005F022817390771F480915D0220915C0268
:1004D00090E0805C9F4F821B910960E470E00E9475
:1004E000A409089580E090E0089520915E02309183
:1004F0005F0228173907B9F490915C0280915D0280
:10050000981789F0E0915C02F0E0E855FE4F808199
:1005100020915C0230E02F5F3F4F2F7333272093F1
:100520005C0290E008958FEF9FEF0895089580E0BA
:1005300090E0089542E050E06FE971E080EE93E0D2
:100540000C948D000E941A0A1F920F920FB60F9200
:1005500011242F933F934F935F936F937F938F93C8
:100560009F93AF93BF93EF93FF9380EE93E00E942E
:10057000FE00FF91EF91BF91AF919F918F917F917D
:100580006F915F914F913F912F910F900FBE0F9000
:100590001F9018951F920F920FB60F9211242F9350
:1005A0008F939F93EF93FF93E091F003F091F1030A
:1005B0008081E091F603F091F70382FD12C09081F3
:1005C0008091F9038F5F8F732091FA03821751F0A6
:1005D000E091F903F0E0E052FC4F958F8093F9032E
:1005E00001C08081FF91EF919F918F912F910F908A
:1005F0000FBE0F901F9018951F920F920FB60F927B
:1006000011242F933F938F939F93AF93BF93809128
:10061000580290915902A0915A02B0915B02309118
:10062000570223E0230F2D3720F40196A11DB11DA1
:1006300005C026E8230F0296A11DB11D2093570285
:100640008093580290935902A0935A02B0935B0290
:100650008091530290915402A0915502B09156029C
:100660000196A11DB11D8093530290935402A09353
:100670005502B0935602BF91AF919F918F913F91D8
:100680002F910F900FBE0F901F9018951F920F92F1
:100690000FB60F9211242F933F934F935F936F9355
:1006A0007F938F939F93AF93BF93EF93FF9380912B
:1006B000B900887F803609F49CC068F5883209F457
:1006C0005BC090F4803109F454C038F4882309F4F5
:1006D000F2C0883009F44DC0F2C0883109F44CC032
:1006E000803209F45DC0EBC0803409F468C048F47E
:1006F000803309F455C0883309F0E1C080932C029F
:10070000D4C0803509F44FC0883509F45DC0883401
:1007100009F0D5C0D2C0883909F4C3C0A8F488371D
:1007200009F467C038F4883609F463C0803709F4E7
:1007300060C0C5C0883809F4B4C0803909F45FC00E
:10074000803809F0BCC05BC0803B09F484C038F439
:10075000803A09F466C0883A09F47DC0B0C0803C94
:1007600009F4A3C0883C09F4A0C0883B09F486C002
:10077000A6C08091520210C0909151028091500207
:10078000981770F5E091510281E08E0F809351022D
:10079000F0E0E05DFD4F80818093BB0085EC82C07E
:1007A00080932C028AC0E091510281E08E0F8093E9
:1007B00051028091BB00F0E0E05DFD4F808390919D
:1007C0005102809150026AC0E091510281E08E0F87
:1007D000809351028091BB00F0E0E05DFD4F80838B
:1007E00080912F02811169C081E080932E0284EAFA
:1007F0005DC083E080932D0210922B02CFCF8091B9
:100800002B02803208F04DC0E0912B0281E08E0F68
:1008100080932B028091BB00F0E0E55FFD4F808369
:10082000BDCF85EC8093BC0010922D0280912B02ED
:10083000803230F4E0912B02F0E0E55FFD4F108252
:1008400060912B0270E08BE092E0E0E0F0E009952F
:1008500010922B0234C084E080932D0210920A0281
:1008600010920902E0E0F0E00995809109028111FF
:1008700005C081E0809309021092E901E0910A022B
:1008800081E08E0F80930A02F0E0E751FE4F8081F5
:100890008093BB0090910A0280910902981708F496
:1008A0007DCF85E88093BC000AC085EC8093BC00B6
:1008B00010922D0204C010922C020E949901FF9107
:1008C000EF91BF91AF919F918F917F916F915F91C8
:1008D0004F913F912F910F900FBE0F901F90189541
:1008E0001F920F920FB60F9211242F933F934F93A5
:1008F0005F936F937F938F939F93AF93BF93EF9388
:10090000FF93E0915E02F0915F02309709F451C0CD
:10091000968DA685B785858591FF04C09C91892316
:1009200029F447C09C91892309F043C0A389B48965
:100930009C918589809589238C93868997890197D5
:10094000F1F7608D718DA685B785558538E020E07B
:10095000CB010197F1F7822F90E095958795282F8D
:100960004C91452309F02068315091F7868D81FD27
:10097000209580915D0290E001968F7399273091C8
:100980005C02381749F0A0915D02B0E0A855BE4F57
:100990002C9380935D0203C0868D8160868F828D4B
:1009A000938D0197F1F7A389B4899C918589892B4F
:1009B0008C93FF91EF91BF91AF919F918F917F9118
:1009C0006F915F914F913F912F910F900FBE0F90BC
:1009D0001F90189590E0FC01E859FF4F2491FC010D
:1009E000E255FF4F3491FC01E656FF4FE491EE23B0
:1009F00009F43CC0222339F1233091F038F421303E
:100A0000A9F0223001F584B58F7D12C0273091F016
:100A10002830A1F02430B9F4809180008F7D03C08C
:100A2000809180008F77809380000DC084B58F7790
:100A300084BD09C08091B0008F7703C08091B00061
:100A40008F7D8093B000F0E0EE0FFF1FE057FF4F67
:100A5000A591B4919FB7F894611104C08C91309521
:100A6000382302C0EC913E2B3C939FBF08950F9317
:100A70001F93CF93DF931092E3031092E20388EE6B
:100A800093E0A0E0B0E08093E4039093E503A093AB
:100A9000E603B093E7032DE631E03093E1032093C2
:100AA000E00325EC30E03093ED032093EC0324ECDD
:100AB00030E03093EF032093EE0320EC30E03093EE
:100AC000F1032093F00321EC30E03093F303209303
:100AD000F20322EC30E03093F5032093F40326EC8C
:100AE00030E03093F7032093F6031092F90310924D
:100AF000FA031092FB031092FC03109280041092F0
:100B00007F048093810490938204A0938304B09324
:100B100084042FE731E030937E0420937D0410920B
:100B20009504109294048093960490939704A09354
:100B30009804B093990481E991E090939304809391
:100B400092041092A9041092A8041092AB0410927F
:100B5000AA041092AD041092AC041092AF0410924B
:100B6000AE046091B0046E7F6D7F6093B0046695B3
:100B7000617081E068270E94EA04EFEAF0E02491C6
:100B8000EBE9F0E08491882399F090E0880F991FB9
:100B9000FC01EA57FF4FA591B491FC01E057FF4FCC
:100BA000859194918FB7F894EC91E22BEC938FBFE1
:100BB000EFEAF0E0E491E093A204EBE9F0E0E491E5
:100BC000F0E0EE0FFF1FE057FF4F85919491909357
:100BD000A4048093A3040EEA10E0F8012491CAE96A
:100BE000D0E0FE0184918823C9F090E0880F991F1E
:100BF000FC01EA57FF4FA591B491FC01E057FF4F6C
:100C0000459154913FB7F8949C91822F80959823F9
:100C10009C93FA019081892380833FBF8091B00427
:100C200081FD04C061E080E00E94EA0410929E040D
:100C3000F801049100939F04FE01C491EC2FF0E0B1
:100C4000EE0FFF1FE458FF4F859194919093A104FC
:100C50008093A00480E4809389048DE794E09093CE
:100C60008B0480938A0422E420938C0490938E0456
:100C700080938D0423E420938F04909391048093B8
:100C80009004DF91CF911F910F910895789484B5CE
:100C9000826084BD84B5816084BD85B5826085BD78
:100CA00085B5816085BD80916E00816080936E0006
:100CB00010928100809181008260809381008091F8
:100CC00081008160809381008091800081608093A9
:100CD00080008091B10084608093B1008091B00069
:100CE00081608093B00080917A00846080937A0064
:100CF00080917A00826080937A0080917A0081608E
:100D000080937A0080917A00806880937A001092B4
:100D1000C100E091F003F091F10382E08083E09163
:100D2000EC03F091ED031082E091EE03F091EF03FC
:100D300080E180831092F803E091F403F091F503D1
:100D400086E08083E091F203F091F303808180617B
:100D50008083E091F203F091F303808188608083C7
:100D6000E091F203F091F303808180688083E09149
:100D7000F203F091F30380818F7D808345E050E0A2
:100D800062EA71E080EE93E00E948D000E949A0278
:100D90001092AD041092AC041092AB041092AA040D
:100DA0001092A9041092A8048DE991E09093AF04E9
:100DB0008093AE0490919E04963108F058C02DEBBC
:100DC00030E03093A9042093A8042BE931E030935C
:100DD000AB042093AA042CE231E03093AD042093BD
:100DE000AC0440916800983058F031E09E3008F42F
:100DF00030E021E0822F01C0880F3A95EAF701C068
:100E000084E0842B80936800983038F09E3040F066
:100E1000963148F42CE630E008C02DE630E005C0FD
:100E20002BE630E002C020E030E03093A6042093AF
:100E3000A504983030F481E001C0880F9A95EAF754
:100E40000EC0292F30E09E3018F42850310902C01E
:100E50002E50310981E001C0880F2A95EAF780936E
:100E6000A7048091AE049091AF040197F1F78091AF
:100E7000AC049091AD04892B49F1E0915E02F091B0
:100E80005F0244E0E239F40709F1309739F0A389B1
:100E9000B4899C918589809589238C938091B00435
:100EA0008E7F8093B00410925D0210925C0282E902
:100EB00094E090935F0280935E02E091A504F0912C
:100EC000A60490818091A704892B8083CAE082E9DF
:100ED00094E00E945D02181619060CF001C282E926
:100EE00094E00E947502833509F08BC182E994E099
:100EF0000E945D02892BD1F382E994E00E94750281
:100F000000E010E0823501F1C09F9001C19F300DDB
:100F10001124EFECE80FE93040F4F0E0E05AFE4F26
:100F20000081002E000C110B02C000E010E0020F47
:100F3000131F82E994E00E945D02892BD1F382E9BC
:100F400094E00E947502DECFE12CF12CCE9D900141
:100F5000CF9D300D1124EFECE80FE93040F4F0E0C4
:100F6000E05AFE4FE0800E2C000CFF0802C0E12C7E
:100F7000F12CE20EF31E82E994E00E945D02892BBF
:100F8000D1F382E994E00E9475028734F9F6C12C0E
:100F9000D12CCC9D9001CD9D300D1124EFECE80FAC
:100FA000E93040F4F0E0E05AFE4FC0800C2C000C19
:100FB000DD0802C0C12CD12CC20ED31E82E994E000
:100FC0000E945D02892BD1F382E994E00E947502B0
:100FD0008234F9F6A12CB12CCA9D9001CB9D300D25
:100FE0001124EFECE80FE93040F4F0E0E05AFE4F56
:100FF000A0800A2C000CBB0802C0A12CB12CA20EB0
:10100000B31E82E994E00E945D02892BD1F382E94C
:1010100094E00E9475028735F9F6612C712CC69D0B
:101020009001C79D300D1124EFECE80FE93040F43A
:10103000F0E0E05AFE4F6080062C000C770802C0FA
:10104000612C712C620E731E82E994E00E945D0295
:10105000892BD1F382E994E00E9475028332F9F67C
:1010600002301105C0F0C801069782309105C0F129
:1010700004968230910508F436C1069782309105B6
:1010800008F431C104968230910508F42FC1069707
:10109000029730F52BC1E0E0F0E00115110529F1D0
:1010A0000430110511F1C8018D7F8130910579F06F
:1010B0000530110561F00630110561F088309105A9
:1010C00049F00730110549F0099779F406C081E02D
:1010D00090E00DC082E090E00AC083E090E007C09D
:1010E000E0E0F0E002301105D9F680E090E0EE0F8C
:1010F000FF1FEE0FFF1FE80FF91F53E0EE0FFF1F5A
:101100005A95E1F7E058FC4FF182E082D382C28227
:10111000B582A48277826682E0E0F0E0412C512C17
:10112000320100E010E07F01E00EF11E6701CC0CFF
:10113000DD1C40E050E0D701A40FB51FCD01805861
:101140009C4F9D0120503F4FDC018D919C91D90116
:101150002D913C91DC01A21BB30B24E630E00E94F0
:10116000D709DA01AA0FBB1FAC0DBD1DA05ABD4F98
:101170006D937D938D939C9313974616570668063F
:10118000790614F42B013C014E5F5F4F4830510546
:1011900091F6085F1F4F0032110529F6B096E03630
:1011A000F10509F0BECFE12CF12CC12CD12C860128
:1011B0000E0D1F1D005A1D4F84E0A82EB12CF80102
:1011C0006081718182819381A30192010E94B8099B
:1011D000D8012D933D934D935D938D01B1E0AB1AF2
:1011E000B10869F7E0E1CE0ED11CF0E4CF16D104CE
:1011F000F1F640E4E40EF11C80ECE816F104A9F6E7
:101200006FC0853209F06CC082E994E00E945D02F3
:10121000892BD1F382E994E00E947502182F65E2D0
:1012200080EE93E00E942001612F80EE93E00E9407
:1012300020010E949A02113371F580E293E020E8C8
:1012400033E0F901DC0144E050E06D917C911197AD
:101250007183608312966D917C911397738362837F
:1012600014966D917C9115977583648316966D9194
:101270007C91179777836683415051091896389669
:101280004115510511F78096205E3F4FA3E080384D
:101290009A07B9F625C080E090E020E030E0B9017F
:1012A000680F791FFB01E058FC4F40E050E0DB0184
:1012B000A40FB51FA05EBC4F008111810D931C933C
:1012C000119211924E5F5F4F4830510581F7285FB0
:1012D0003F4F2032310519F7809680369105E9F6A7
:1012E0000E948F01F4CDE1E0F0E0FCCEE2E0F0E01E
:1012F000F9CE81E991E090939304809392048091D8
:101300005E0290915F028259944071F4E091A504CD
:10131000F091A60490818091A70480958923808311
:1013200010925F0210925E020895A29FB001B39FD7
:10133000C001A39F700D811D1124911DB29F700DDE
:10134000811D1124911D089597FB072E16F400941A
:1013500007D077FD09D00E94DE0907FC05D03EF4D6
:10136000909581959F4F0895709561957F4F089551
:10137000052E97FB1EF400940E94CF0957FD07D05D
:101380000E94F20907FC03D04EF40C94CF0950954B
:101390004095309521953F4F4F4F5F4F0895909561
:1013A0008095709561957F4F8F4F9F4F08950E9454
:1013B0009509B7FF0895821B930B0895AA1BBB1BC9
:1013C00051E107C0AA1FBB1FA617B70710F0A61B45
:1013D000B70B881F991F5A95A9F780959095BC0166
:1013E000CD010895A1E21A2EAA1BBB1BFD010DC061
:1013F000AA1FBB1FEE1FFF1FA217B307E407F507C5
:1014000020F0A21BB30BE40BF50B661F771F881FA0
:10141000991F1A9469F760957095809590959B0136
:10142000AC01BD01CF010895EE0FFF1F0590F491AF
:10143000E02D099481E090E0F8940C941F0A10E0EC
:10144000C2E6D0E004C0FE010E94140A2196C33611
:08145000D107C9F7F894FFCFA2
:101458000000000000000000000000000000000084
:101468000000000000000000000000000000000074
:101478000000000000000000000000000000000064
:101488000000000000000000000000000000000054
:101498000000000000000000000000000000000044
:1014A8000000000000000000000000000000000034
:1014B8000102030405060708090000000020018D49
:1014C80000B7006D01E800C600DA0000000000E483
:1014D80001D9019702CB01D201CF01CC0100000054
:1014E800000D028D009702CB015D027502F5010D1A
:0814F8000A0053544152540054
:00000001FF
